{
  "address": "0x1DdD92fbaB65a8D98C3772e215888f684D084339",
  "abi": [
    {
      "inputs": [
        {
          "internalType": "address",
          "name": "_owner",
          "type": "address"
        },
        {
          "internalType": "address",
          "name": "_token",
          "type": "address"
        }
      ],
      "stateMutability": "nonpayable",
      "type": "constructor"
    },
    {
      "anonymous": false,
      "inputs": [
        {
          "indexed": false,
          "internalType": "string",
          "name": "func",
          "type": "string"
        },
        {
          "indexed": false,
          "internalType": "uint256",
          "name": "gas",
          "type": "uint256"
        }
      ],
      "name": "Log",
      "type": "event"
    },
    {
      "anonymous": false,
      "inputs": [
        {
          "indexed": true,
          "internalType": "address",
          "name": "previousOwner",
          "type": "address"
        },
        {
          "indexed": true,
          "internalType": "address",
          "name": "newOwner",
          "type": "address"
        }
      ],
      "name": "OwnershipTransferred",
      "type": "event"
    },
    {
      "stateMutability": "payable",
      "type": "fallback"
    },
    {
      "inputs": [
        {
          "internalType": "address",
          "name": "adr",
          "type": "address"
        }
      ],
      "name": "beanRewards",
      "outputs": [
        {
          "internalType": "uint256",
          "name": "",
          "type": "uint256"
        }
      ],
      "stateMutability": "view",
      "type": "function"
    },
    {
      "inputs": [],
      "name": "buyBones",
      "outputs": [],
      "stateMutability": "payable",
      "type": "function"
    },
    {
      "inputs": [
        {
          "internalType": "uint256",
          "name": "eth",
          "type": "uint256"
        },
        {
          "internalType": "uint256",
          "name": "contractBalance",
          "type": "uint256"
        }
      ],
      "name": "calculateBoneBuy",
      "outputs": [
        {
          "internalType": "uint256",
          "name": "",
          "type": "uint256"
        }
      ],
      "stateMutability": "view",
      "type": "function"
    },
    {
      "inputs": [
        {
          "internalType": "uint256",
          "name": "eth",
          "type": "uint256"
        }
      ],
      "name": "calculateBoneBuySimple",
      "outputs": [
        {
          "internalType": "uint256",
          "name": "",
          "type": "uint256"
        }
      ],
      "stateMutability": "view",
      "type": "function"
    },
    {
      "inputs": [
        {
          "internalType": "uint256",
          "name": "bones",
          "type": "uint256"
        }
      ],
      "name": "calculateBoneSell",
      "outputs": [
        {
          "internalType": "uint256",
          "name": "",
          "type": "uint256"
        }
      ],
      "stateMutability": "view",
      "type": "function"
    },
    {
      "inputs": [],
      "name": "getBalance",
      "outputs": [
        {
          "internalType": "uint256",
          "name": "",
          "type": "uint256"
        }
      ],
      "stateMutability": "view",
      "type": "function"
    },
    {
      "inputs": [
        {
          "internalType": "address",
          "name": "adr",
          "type": "address"
        }
      ],
      "name": "getBonesSinceLastHatch",
      "outputs": [
        {
          "internalType": "uint256",
          "name": "",
          "type": "uint256"
        }
      ],
      "stateMutability": "view",
      "type": "function"
    },
    {
      "inputs": [
        {
          "internalType": "address",
          "name": "adr",
          "type": "address"
        }
      ],
      "name": "getMyBones",
      "outputs": [
        {
          "internalType": "uint256",
          "name": "",
          "type": "uint256"
        }
      ],
      "stateMutability": "view",
      "type": "function"
    },
    {
      "inputs": [
        {
          "internalType": "address",
          "name": "adr",
          "type": "address"
        }
      ],
      "name": "getMyMiners",
      "outputs": [
        {
          "internalType": "uint256",
          "name": "",
          "type": "uint256"
        }
      ],
      "stateMutability": "view",
      "type": "function"
    },
    {
      "inputs": [],
      "name": "hatchBones",
      "outputs": [],
      "stateMutability": "nonpayable",
      "type": "function"
    },
    {
      "inputs": [],
      "name": "owner",
      "outputs": [
        {
          "internalType": "address",
          "name": "",
          "type": "address"
        }
      ],
      "stateMutability": "view",
      "type": "function"
    },
    {
      "inputs": [],
      "name": "renounceOwnership",
      "outputs": [],
      "stateMutability": "nonpayable",
      "type": "function"
    },
    {
      "inputs": [],
      "name": "seedMarket",
      "outputs": [],
      "stateMutability": "payable",
      "type": "function"
    },
    {
      "inputs": [],
      "name": "sellBones",
      "outputs": [],
      "stateMutability": "nonpayable",
      "type": "function"
    },
    {
      "inputs": [
        {
          "internalType": "address",
          "name": "_token",
          "type": "address"
        }
      ],
      "name": "setToken",
      "outputs": [],
      "stateMutability": "nonpayable",
      "type": "function"
    },
    {
      "inputs": [
        {
          "internalType": "uint8",
          "name": "_tradingState",
          "type": "uint8"
        }
      ],
      "name": "setTradingState",
      "outputs": [],
      "stateMutability": "nonpayable",
      "type": "function"
    },
    {
      "inputs": [],
      "name": "tradingState",
      "outputs": [
        {
          "internalType": "uint8",
          "name": "",
          "type": "uint8"
        }
      ],
      "stateMutability": "view",
      "type": "function"
    },
    {
      "inputs": [
        {
          "internalType": "address",
          "name": "newOwner",
          "type": "address"
        }
      ],
      "name": "transferOwnership",
      "outputs": [],
      "stateMutability": "nonpayable",
      "type": "function"
    },
    {
      "stateMutability": "payable",
      "type": "receive"
    }
  ],
  "transactionHash": "0x1a3a3b62de4a017bae3498b9fa26fff918dffc694f1b1bdea5cc48e287323126",
  "args": [
    "0x66ab0d9605fb5D5c9f802deA199C38d93B1Ea8ab",
    "0x0406dbBF7B62f79F8d889F30cC1F0E9191c404D4"
  ],
  "numDeployments": 9,
  "solcInputHash": "eea8480ea0856f49c62e8fa614e65051",
  "bytecode": "0x608060405262107ac06001556127106002908155611388600355600455600580546001600160a81b03191674aeba95a79411d88c7c108bebcc2a8eaa5143a7f900179055600b805460ff191690553480156200005a57600080fd5b50604051620012dd380380620012dd8339810160408190526200007d91620002c1565b600080546001600160a01b03191633908117825560405190918291600080516020620012bd833981519152908290a350620000b881620000cb565b620000c3826200019a565b5050620002f9565b6000546001600160a01b031633146200011a5760405162461bcd60e51b815260206004820181905260248201526000805160206200129d83398151915260448201526064015b60405180910390fd5b6001600160a01b038116620001725760405162461bcd60e51b815260206004820152601560248201527f696e76616c696420746f6b656e20616464726573730000000000000000000000604482015260640162000111565b600b80546001600160a01b0390921661010002610100600160a81b0319909216919091179055565b6000546001600160a01b03163314620001e55760405162461bcd60e51b815260206004820181905260248201526000805160206200129d833981519152604482015260640162000111565b620001f081620001f3565b50565b6001600160a01b0381166200025a5760405162461bcd60e51b815260206004820152602660248201527f4f776e61626c653a206e6577206f776e657220697320746865207a65726f206160448201526564647265737360d01b606482015260840162000111565b600080546040516001600160a01b0380851693921691600080516020620012bd83398151915291a3600080546001600160a01b0319166001600160a01b0392909216919091179055565b80516001600160a01b0381168114620002bc57600080fd5b919050565b60008060408385031215620002d557600080fd5b620002e083620002a4565b9150620002f060208401620002a4565b90509250929050565b610f9480620003096000396000f3fe60806040526004361061010d5760003560e01c8063715018a611610095578063927fbd7211610064578063927fbd7214610334578063a507abee14610354578063c373336e14610374578063f2fde38b146103a0578063fa1aa46b146103c05761016f565b8063715018a6146102b75780637954c5fd146102cc5780637a504dca146102ec5780638da5cb5b1461030c5761016f565b80632d826771116100dc5780632d826771146102245780633c5f07cb14610239578063423e8696146102415780634b634b06146102615780635694750e146102975761016f565b806312065fe0146101c3578063144fa6d7146101e557806327cf3181146102075780632c65b2921461020f5761016f565b3661016f577fdd970dd9b5bfe707922155b058a407655cb18288b807e2216442bca8ad83d6b55a60405161016591906040808252600790820152667265636569766560c81b6060820152602081019190915260800190565b60405180910390a1005b7fdd970dd9b5bfe707922155b058a407655cb18288b807e2216442bca8ad83d6b55a604051610165919060408082526008908201526766616c6c6261636b60c01b6060820152602081019190915260800190565b3480156101cf57600080fd5b50475b6040519081526020015b60405180910390f35b3480156101f157600080fd5b50610205610200366004610d85565b6103e0565b005b610205610489565b34801561021b57600080fd5b5061020561063e565b34801561023057600080fd5b5061020561081c565b6102056109a9565b34801561024d57600080fd5b5061020561025c366004610dae565b6109f8565b34801561026d57600080fd5b506101d261027c366004610d85565b6001600160a01b031660009081526006602052604090205490565b3480156102a357600080fd5b506101d26102b2366004610dd1565b610ab1565b3480156102c357600080fd5b50610205610ac3565b3480156102d857600080fd5b506101d26102e7366004610dd1565b610b37565b3480156102f857600080fd5b506101d2610307366004610d85565b610b46565b34801561031857600080fd5b506000546040516001600160a01b0390911681526020016101dc565b34801561034057600080fd5b506101d261034f366004610dea565b610b74565b34801561036057600080fd5b506101d261036f366004610d85565b610b8a565b34801561038057600080fd5b50600b5461038e9060ff1681565b60405160ff90911681526020016101dc565b3480156103ac57600080fd5b506102056103bb366004610d85565b610bab565b3480156103cc57600080fd5b506101d26103db366004610d85565b610be1565b6000546001600160a01b031633146104135760405162461bcd60e51b815260040161040a90610e0c565b60405180910390fd5b6001600160a01b0381166104615760405162461bcd60e51b8152602060048201526015602482015274696e76616c696420746f6b656e206164647265737360581b604482015260640161040a565b600b80546001600160a01b0390921661010002610100600160a81b0319909216919091179055565b600b5460ff166000036104c0576000546001600160a01b031633146104c05760405162461bcd60e51b815260040161040a90610e41565b6000546001600160a01b03163314806105565750600b5461010090046001600160a01b03166370a08231336040516001600160e01b031960e084901b1681526001600160a01b039091166004820152602401602060405180830381865afa15801561052f573d6000803e3d6000fd5b505050506040513d601f19601f820116820180604052508101906105539190610e71565b15155b6105725760405162461bcd60e51b815260040161040a90610e8a565b60055460ff166105945760405162461bcd60e51b815260040161040a90610ec1565b60006105a43461034f8147610eff565b90506105af81610c3b565b6105b99082610eff565b905060006105c634610c3b565b60055460405191925061010090046001600160a01b0316906108fc8315029083906000818181858888f19350505050158015610606573d6000803e3d6000fd5b5033600090815260076020526040902054610622908390610f12565b3360009081526007602052604090205561063a61081c565b5050565b600b5460ff16600003610675576000546001600160a01b031633146106755760405162461bcd60e51b815260040161040a90610e41565b6000546001600160a01b031633148061070b5750600b5461010090046001600160a01b03166370a08231336040516001600160e01b031960e084901b1681526001600160a01b039091166004820152602401602060405180830381865afa1580156106e4573d6000803e3d6000fd5b505050506040513d601f19601f820116820180604052508101906107089190610e71565b15155b6107275760405162461bcd60e51b815260040161040a90610e8a565b60055460ff166107495760405162461bcd60e51b815260040161040a90610ec1565b600061075433610b46565b9050600061076182610b37565b9050600061076e82610c3b565b33600090815260076020908152604080832083905560089091529020429055600a5490915061079e908490610f12565b600a556005546040516101009091046001600160a01b0316906108fc8315029083906000818181858888f193505050501580156107df573d6000803e3d6000fd5b50336108fc6107ee8385610eff565b6040518115909202916000818181858888f19350505050158015610816573d6000803e3d6000fd5b50505050565b600b5460ff16600003610853576000546001600160a01b031633146108535760405162461bcd60e51b815260040161040a90610e41565b6000546001600160a01b03163314806108e95750600b5461010090046001600160a01b03166370a08231336040516001600160e01b031960e084901b1681526001600160a01b039091166004820152602401602060405180830381865afa1580156108c2573d6000803e3d6000fd5b505050506040513d601f19601f820116820180604052508101906108e69190610e71565b15155b6109055760405162461bcd60e51b815260040161040a90610e8a565b60055460ff166109275760405162461bcd60e51b815260040161040a90610ec1565b600061093233610b46565b90506000600154826109449190610f25565b33600090815260066020526040902054909150610962908290610f12565b33600090815260066020908152604080832093909355600781528282208290556008905220429055610995600583610f25565b600a546109a29190610f12565b600a555050565b6000546001600160a01b031633146109d35760405162461bcd60e51b815260040161040a90610e0c565b600a54156109e057600080fd5b6005805460ff191660011790556419254d3800600a55565b6000546001600160a01b03163314610a225760405162461bcd60e51b815260040161040a90610e0c565b60038160ff1610610a9b5760405162461bcd60e51b815260206004820152603d60248201527f74726164696e672073746174652073686f756c6420626520303a6f6e6c79206f60448201527f776e65722c20313a77686974656c69737465642c20323a7075626c6963000000606482015260840161040a565b600b805460ff191660ff92909216919091179055565b6000610abd8247610b74565b92915050565b6000546001600160a01b03163314610aed5760405162461bcd60e51b815260040161040a90610e0c565b600080546040516001600160a01b03909116907f8be0079c531659141344cd1fd0a4f28419497f9722a3daafe3b4186f6b6457e0908390a3600080546001600160a01b0319169055565b6000610abd82600a5447610c57565b6000610b5182610be1565b6001600160a01b038316600090815260076020526040902054610abd9190610f12565b6000610b838383600a54610c57565b9392505050565b600080610b9683610b46565b90506000610ba382610b37565b949350505050565b6000546001600160a01b03163314610bd55760405162461bcd60e51b815260040161040a90610e0c565b610bde81610caf565b50565b6001546001600160a01b03821660009081526008602052604081205490918291610c159190610c109042610eff565b610d6f565b6001600160a01b038416600090815260066020526040902054909150610b839082610f47565b6000606460045483610c4d9190610f47565b610abd9190610f25565b60008384600354610c689190610f47565b84600254610c769190610f47565b610c809190610f12565b610c8a9190610f25565b600354610c979190610f12565b82600254610ca59190610f47565b610ba39190610f25565b6001600160a01b038116610d145760405162461bcd60e51b815260206004820152602660248201527f4f776e61626c653a206e6577206f776e657220697320746865207a65726f206160448201526564647265737360d01b606482015260840161040a565b600080546040516001600160a01b03808516939216917f8be0079c531659141344cd1fd0a4f28419497f9722a3daafe3b4186f6b6457e091a3600080546001600160a01b0319166001600160a01b0392909216919091179055565b6000818310610d7e5781610b83565b5090919050565b600060208284031215610d9757600080fd5b81356001600160a01b0381168114610b8357600080fd5b600060208284031215610dc057600080fd5b813560ff81168114610b8357600080fd5b600060208284031215610de357600080fd5b5035919050565b60008060408385031215610dfd57600080fd5b50508035926020909101359150565b6020808252818101527f4f776e61626c653a2063616c6c6572206973206e6f7420746865206f776e6572604082015260600190565b6020808252601690820152751d1c9859195cc8185c99481b9bdd08195b98589b195960521b604082015260600190565b600060208284031215610e8357600080fd5b5051919050565b60208082526017908201527f73686f756c642062652061204d494e4520686f6c646572000000000000000000604082015260600190565b6020808252600e908201526d1b9bdd081a5b9a5d1a5b1a5e995960921b604082015260600190565b634e487b7160e01b600052601160045260246000fd5b81810381811115610abd57610abd610ee9565b80820180821115610abd57610abd610ee9565b600082610f4257634e487b7160e01b600052601260045260246000fd5b500490565b8082028115828204841417610abd57610abd610ee956fea2646970667358221220fe2e11f09d04d8514b213059c2ab8e9dc2ce7c91814317b9b7432e1ee79e24ba64736f6c634300081400334f776e61626c653a2063616c6c6572206973206e6f7420746865206f776e65728be0079c531659141344cd1fd0a4f28419497f9722a3daafe3b4186f6b6457e0",
  "devdoc": {
    "kind": "dev",
    "methods": {},
    "version": 1
  },
  "userdoc": {
    "kind": "user",
    "methods": {},
    "version": 1
  },
  "storageLayout": {
    "storage": [
      {
        "astId": 36,
        "contract": "contracts/Mining.sol:Mining",
        "label": "_owner",
        "offset": 0,
        "slot": "0",
        "type": "t_address"
      },
      {
        "astId": 157,
        "contract": "contracts/Mining.sol:Mining",
        "label": "BONES_TO_HATCH_1MINERS",
        "offset": 0,
        "slot": "1",
        "type": "t_uint256"
      },
      {
        "astId": 160,
        "contract": "contracts/Mining.sol:Mining",
        "label": "PSN",
        "offset": 0,
        "slot": "2",
        "type": "t_uint256"
      },
      {
        "astId": 163,
        "contract": "contracts/Mining.sol:Mining",
        "label": "PSNH",
        "offset": 0,
        "slot": "3",
        "type": "t_uint256"
      },
      {
        "astId": 166,
        "contract": "contracts/Mining.sol:Mining",
        "label": "devFeeVal",
        "offset": 0,
        "slot": "4",
        "type": "t_uint256"
      },
      {
        "astId": 169,
        "contract": "contracts/Mining.sol:Mining",
        "label": "initialized",
        "offset": 0,
        "slot": "5",
        "type": "t_bool"
      },
      {
        "astId": 175,
        "contract": "contracts/Mining.sol:Mining",
        "label": "recAdd",
        "offset": 1,
        "slot": "5",
        "type": "t_address_payable"
      },
      {
        "astId": 185,
        "contract": "contracts/Mining.sol:Mining",
        "label": "hatcheryMiners",
        "offset": 0,
        "slot": "6",
        "type": "t_mapping(t_address,t_uint256)"
      },
      {
        "astId": 189,
        "contract": "contracts/Mining.sol:Mining",
        "label": "claimedBones",
        "offset": 0,
        "slot": "7",
        "type": "t_mapping(t_address,t_uint256)"
      },
      {
        "astId": 193,
        "contract": "contracts/Mining.sol:Mining",
        "label": "lastHatch",
        "offset": 0,
        "slot": "8",
        "type": "t_mapping(t_address,t_uint256)"
      },
      {
        "astId": 197,
        "contract": "contracts/Mining.sol:Mining",
        "label": "referrals",
        "offset": 0,
        "slot": "9",
        "type": "t_mapping(t_address,t_address)"
      },
      {
        "astId": 199,
        "contract": "contracts/Mining.sol:Mining",
        "label": "marketBones",
        "offset": 0,
        "slot": "10",
        "type": "t_uint256"
      },
      {
        "astId": 202,
        "contract": "contracts/Mining.sol:Mining",
        "label": "tradingState",
        "offset": 0,
        "slot": "11",
        "type": "t_uint8"
      },
      {
        "astId": 205,
        "contract": "contracts/Mining.sol:Mining",
        "label": "token",
        "offset": 1,
        "slot": "11",
        "type": "t_contract(IERC20)150"
      }
    ],
    "types": {
      "t_address": {
        "encoding": "inplace",
        "label": "address",
        "numberOfBytes": "20"
      },
      "t_address_payable": {
        "encoding": "inplace",
        "label": "address payable",
        "numberOfBytes": "20"
      },
      "t_bool": {
        "encoding": "inplace",
        "label": "bool",
        "numberOfBytes": "1"
      },
      "t_contract(IERC20)150": {
        "encoding": "inplace",
        "label": "contract IERC20",
        "numberOfBytes": "20"
      },
      "t_mapping(t_address,t_address)": {
        "encoding": "mapping",
        "key": "t_address",
        "label": "mapping(address => address)",
        "numberOfBytes": "32",
        "value": "t_address"
      },
      "t_mapping(t_address,t_uint256)": {
        "encoding": "mapping",
        "key": "t_address",
        "label": "mapping(address => uint256)",
        "numberOfBytes": "32",
        "value": "t_uint256"
      },
      "t_uint256": {
        "encoding": "inplace",
        "label": "uint256",
        "numberOfBytes": "32"
      },
      "t_uint8": {
        "encoding": "inplace",
        "label": "uint8",
        "numberOfBytes": "1"
      }
    }
  }
}